:1002DF0010283F065B4F666D7D077F6F777C395E19
:1002EF0079711E0A777C395E79713D760F0E7538FC
:1002FF0037545C73673149783E1C7E646E59010F29
:10030F0010081038000000040008000C0010001442
:10031F000018001C1082001D001D001D001200049B
:10032F000013001D001D1070001D001D0004000DA6
:0C033F00001300040011001D0208000063
:0F04F100C2B47F287E00120500D2B47F287E009F
:0B050000EF1FAC0670011E4C70F622CD
:10046B007B017A00EF64014EEB64014A703130B1CD
:10047B000930B00630B20320B325E4FAFB7F107EBF
:10048B002712050020B1057E007F012220B0057EDA
:10049B00007F02227E0020B2037F03227F0422E42E
:0204AB00FEFF52
:0104AD00222C
:1000AF007892760108762CEE6003020144EF6042ED
:1000BF00146003020144789208E616188606700150
:1000CF00164E60051204F180ED789276000876C81E
:1000DF00789208E6161886067001164E6057C2B45D
:1000EF007F3B7E00120500D2B47F3B7E00120500DD
:1000FF0080DE7892760108762C789208E6161886BC
:10010F00067001164E60051204F180ED78927600AC
:10011F000876C8789208E6161886067001164E60A3
:10012F00D1C2B47F3B7E00120500D2B47F3B7E006C
:06013F0012050080DE2223
:1001450075900FE590640F60797FE87E03120500D6
:10015500E590640F607175900FAF90EF24F5601313
:1001650024FE601714601C2407701E7508007509AD
:10017500018016750800750902800E75080075095D
:100185000380067508007509047590F0AF90EF249B
:1001950050601424E0601424F060142470701B85F2
:1001A50008088509098013740480067408800274A0
:1001B5000C2509F509E43508F508E59064F06007B4
:0B01C50080F8E4F508F509AE08AF096A
:0101D000220C
:10025D008B688A69896AE47880F608F67894F608DE
:10026D00F618F608F67894E6FE08E6FFFDC3740767
:10027D009D25E02438F808E6F5A0EF25E0FFEE33E4
:10028D00AB68AA69A96A8F82F5831203B2240AF8B2
:10029D00E6F5807F0A7E00120500E4F5807895066C
:1002AD00E618700106C37895E6940818E664809404
:1002BD008040B2E4FFFE12046B7880EEF608EFF694
:1002CD004E60937F107E27120500E6640418467079
:0202DD00852278
:1004AE001201457880EEF608EFF64E6024E624FF42
:1004BE00FD18E634FFFC7893E625E0FF18E6338F4F
:1004CE0082F583EC8DF01203EA789306E61870013C
:1004DE00067893E6640818466008E47880F608F615
:0304EE0080BE22AB
:100417008B688A69896AE47896F608F67896E6FE24
:1004270008E6FFC39408EE648094805036EF25E019
:10043700FFEE33FEAB6BAA6CA96D8F82F5831203B7
:10044700B2FDACF0AB68AA69A96A8F828E831203EA
:10045700B2B5050FE5F0B5040A789706E61870BC43
:040467000680B92230
:100003008B688A69896A786FE6184670030200AEC6
:10001300E47880F608F67892F608F608F608F6AB68
:1000230068AA69A96A1204AEE4FFFE12046B788021
:10003300EEF608EFF64E601F18E6FE08E6FF6401D1
:100043004E60C3EF64044E700E786EF608F67FE8D8
:100053007E0312050080AFE47894F608F6C3789522
:10006300E6940818E66480948050BDE6FE08E6FF37
:10007300FDC374079D25E02438F808E6F5A0EF25B5
:10008300E0FFEE33AB68AA69A96A8F82F583120396
:10009300B22428F8E6F5807F0A7E00120500E4F515
:0C00A30080789506E61870B50680B22241
:10034C007B007A00798212025D786E760008760165
:10035C007B007A007948120003E47880F608F6787E
:10036C0092F608F608F608F6FB7A00797012025D30
:10037C00786E76000876017B007A007958120003BB
:10038C00756B00756C00756D587B007A007948129E
:10039C0004177897E66408184670047F018002E41D
:0603AC00FFFE1200AF226B
:030000000201D129
:0C01D100787FE4F6D8FD758197020218D3
:1003B200BB0110E58229F582E5833AF583E0F5F089
:1003C200A3E0225009E92582F886F008E622BBFE66
:1003D2000AE92582F8E2F5F008E222E5832AF583AC
:0803E200E993F5F0A3E9932271
:1003EA00F8BB0111E58229F582E5833AF583E8F045
:1003FA00E5F0A3F0225009E92582C8F608A6F02202
:0D040A00BBFE09E92582C8F2E5F008F222E8
:1001DD0002034CE493A3F8E493A34003F68001F2E9
:1001ED0008DFF48029E493A3F85407240CC8C33323
:1001FD00C4540F4420C8834004F456800146F6DFF2
:10020D00E4800B01020408102040809002DFE47EA0
:10021D00019360BCA3FF543F30E509541FFEE493E6
:10022D00A360010ECF54C025E060A840B8E493A3AD
:10023D00FAE493A3F8E493A3C8C582C8CAC583CAD8
:10024D00F0A3C8C582C8CAC583CADFE9DEE780BE90
:01034B0000B1
:00000001FF
