:1001B10010383F065B4F666D7D077F6F777C395E38
:1001C1007971202E0A777C395E79713D760F0E7533
:1001D1003837545C73673149783E1C7E646E59012F
:1001E1000F10083F065B4F666D7D077F6F777C3987
:1001F1005E79711048000000040008000C00100036
:10020100140018001C1076001D001D001D001200B6
:10021100040013001D001D1064001D001D000400DA
:100221000D001300040011001D1086001D001D00AB
:0F0231001D001D001D001D001D001D0208000006
:0B04D500EF1FAC0670011E4C70F622F9
:10043F007B017A00EF64014EEB64014A703130B1F9
:10044F000930B00630B20320B325E4FAFB7F107EEB
:10045F00271204D520B1057E007F012220B0057E32
:10046F00007F02227E0020B2037F03227F0422E45A
:02047F00FEFF7E
:010481002258
:1002410075900FE590640F60797FE87E031204D505
:10025100E590640F607175900FAF90EF24F5601316
:1002610024FE601714601C2407701E7508007509B0
:10027100018016750800750902800E750800750960
:100281000380067508007509047590F0AF90EF249E
:1002910050601424E0601424F060142470701B85F5
:1002A10008088509098013740480067408800274A3
:1002B1000C2509F509E43508F508E59064F06007B7
:0B02C10080F8E4F508F509AE08AF096D
:0102CC00220F
:100359008B5C8A5D895EE47874F608F67898F6080D
:10036900F618F608F67898E6FE08E6FFFDC3740766
:100379009D25E02448F808E6F5A0EF25E0FFEE33D7
:10038900AB5CAA5DA95E8F82F58312004B240AF843
:10039900E6F5807F647E001204D5E4F5807899063D
:1003A900E618700106C37899E6940818E664809403
:1003B9008040B2E4FFFE12043F7874EEF608EFF6CF
:1003C9004E60937F107E271204D5E66404184670A8
:0203D90085227B
:100482001202417874EEF608EFF64E6024E624FF7D
:10049200FD18E634FFFC7897E625E0FF18E6338F77
:1004A20082F583EC8DF0120083789706E6187001CE
:1004B200067897E6640218466008E47874F608F64F
:0304C20080BE22D7
:100105008B5F8A6089617863E6184670030201B0E7
:10011500E47874F608F67896F608F608F608F6AB6D
:100125005FAA60A961120482E4FFFE12043F78749D
:10013500EEF608EFF64E601F18E6FE08E6FF6401CE
:100145004E60C3EF64044E700E7862F608F67FE8E1
:100155007E031204D580AFE47898F608F6C3789943
:10016500E6940218E66480948050BDE6FE08E6FF3A
:10017500FDC374079D25E02448F808E6F5A0EF25A2
:10018500E0FFEE33AB5FAA60A9618F82F5831200B1
:100195004B2438F8E6F5807F0A7E001204D5E4F595
:0C01A50080789906E61870B50680B2223A
:1004C500438901758CFF758AF6D2A9D2AFD28C22E9
:1003DB00E4FBFA7862F6087601F558F559F55A758B
:1003EB005B01AE58AF59FC7D0A120003E55B2FFF92
:1003FB00E55A3EFE7D1E1200037D64120015789CAB
:10040B00A60608A6070BBB00010AC3EB9464EA64BB
:10041B008094804003E4FAFB789CE6FE08E6FFD369
:10042B00EB9FEE6480F8EA6480985004D2B480D5D8
:04043B00C2B480D1F6
:030000000202CD2C
:0C02CD00787FE4F6D8FD75819D020314D3
:1002D9000203DBE493A3F8E493A34003F68001F25D
:1002E90008DFF48029E493A3F85407240CC8C33326
:1002F900C4540F4420C8834004F456800146F6DFF5
:10030900E4800B01020408102040809001B1E47ED2
:10031900019360BCA3FF543F30E509541FFEE493E9
:10032900A360010ECF54C025E060A840B8E493A3B0
:10033900FAE493A3F8E493A3C8C582C8CAC583CADB
:10034900F0A3C8C582C8CAC583CADFE9DEE780BE93
:0102400000BD
:10000300EF8DF0A4A8F0CF8CF0A428CE8DF0A42E11
:02001300FE22CB
:10001500C2D5EC30E709B2D5E4C39DFDE49CFCEE06
:1000250030E715B2D5E4C39FFFE49EFE1200B0C3CE
:10003500E49DFDE49CFC80031200B030D507C3E4C9
:060045009FFFE49EFE2275
:10004B00BB0110E58229F582E5833AF583E0F5F0F3
:10005B00A3E0225009E92582F886F008E622BBFED0
:10006B000AE92582F8E2F5F008E222E5832AF58316
:08007B00E993F5F0A3E99322DB
:10008300F8BB0111E58229F582E5833AF583E8F0AF
:10009300E5F0A3F0225009E92582C8F608A6F0226C
:0D00A300BBFE09E92582C8F2E5F008F22253
:1000B000BC000BBE0029EF8DF084FFADF022E4CC34
:1000C000F875F008EF2FFFEE33FEEC33FCEE9DECFD
:1000D000984005FCEE9DFE0FD5F0E9E4CEFD22ED43
:1000E000F8F5F0EE8420D21CFEADF075F008EF2F8D
:1000F000FFED33FD4007985006D5F0F222C398FD7E
:050100000FD5F0EA221A
:00000001FF
