:030000000207E60E
:0C07E600787FE4F6D8FD75812102082D13
:03000E00C290227B
:030F0900D2902261
:100EBF00C2A6C2A5C2A78F807F017E00120CFBD2F3
:0B0ECF00A77F017E00120CFBC2A722CF
:0F0E2800900023E0FBA3E0FAA3E0F9120471FFAE
:100E3700D2A6C2A5C2A78F807F017E00120CFBD26B
:0B0E4700A77F017E00120CFBC2A72257
:100EDA007F38120EBF7F0C120EBF7F06120EBF7F25
:040EEA0001020EBF34
:050006007F01020EBFA6
:0E071700900022EFF0A3EBF0A3EAF0A3E9F0CC
:10072500E4A3F0EDD3940140030207E5900022E035
:10073500940F40030207E5EDC39401505390002345
:10074500E0FBA3E0FAA3E0F912047170030207E5E8
:10075500900022E0FFC374109FFE900026E0FDC3C9
:100765009E5008ED2480FEEF2E800C900022E0FFC5
:10077500900026E02F24B0FF120EBF120E28900025
:1007850024E475F0011204C0900026E004F080AD69
:10079500900023E0FBA3E0FAA3E0F91204716040A6
:1007A500900022E0FFC374109FFE900026E0FDC379
:1007B5009E5008ED24C0FEEF2E800C900022E0FF35
:1007C500900026E02F2470FF120EBF120E28900015
:1007D50024E475F0011204C0900026E004F080B016
:0107E50022F1
:070D9E0044006200000000A8
:100EEE00438901758CFC758A18D2A9D2AFD28C2297
:080DE800900022EEF0A3EFF0F1
:100DF000E4A3F0A3F0900024F0A3F0900022E0FE22
:100E0000A3E0FFC3900025E09F900024E09E5017D0
:100E10007FE87E03120CFB900025E004F070DC906C
:070E20000024E004F080D47F
:010E270022A8
:080CFB00900027EEF0A3EFF0DA
:100D0300900062E0FCA3E0FDA3E0FEA3E0FF9000FF
:100D130029120531900027E0FEA3E0FFE4FCFDA3C8
:100D2300E0F8A3E0F9A3E0FAA3E02FFFEA3EFEED2B
:100D330039FDEC38FC900062E0F8A3E0F9A3E0FA97
:090D4300A3E0FBD312052040CB14
:010D4C002284
:03000B00020D4D96
:100D4D00C0E0C0F0C083C082C0D075D000C000C06C
:100D5D0004C005C006C007758CFC758A189000622A
:100D6D00E0FCA3E0FDA3E0FEA3E02401FFE43EFED2
:100D7D00E43DFDE43CFC900062120531D007D00645
:100D8D00D005D004D000D0D0D082D083D0F0D0E028
:010D9D003223
:100E9D004155544F2D5741544552494E472020201E
:100EAD0000202020202057454C434F4D452D5357B2
:020EBD005100E2
:100CA60078007C007D017BFF7A0E799D7E007F11A6
:100CB60012044B78117C007D017BFF7A0E79AE7EA3
:100CC600007F1112044B12000E120EEE120EFE12CF
:100CD6000EDA7B017A007900E4FDFF1207177B012B
:100CE6007A0079117D01E4FF1207177F037E001257
:050CF6000DE8020006FC
:100E7900120CA67F1F7E03120CFB120617120C4ED2
:100E8900900053E07002A3E06005120F0980E4129C
:040E9900000E80DFE8
:10087200253032643A253032643A2530326400251C
:100882003034643A253032643A25303264002530FF
:100892003264002530336420686F7572730025302E
:1008A2003264207365636F6E647300637572726580
:1008B2006E742074696D653A00776F726B696E674A
:1008C2002074696D653A007365742074696D653AC8
:1008D20000736574206D696E7574653A0077617492
:1008E2006572696E67206761703A0077617465723C
:0A08F200696E67206C6173743A00B0
:100DA50042004B0000420051000042004D0000424D
:100DB500005E0000420058000042004F000C420057
:100DC50047001E42005A001E4200490001420060D1
:100DD5000001420053000043005500000042005C42
:020DE5000018F4
:10061700900059E004F07006900058E004F0900054
:1006270053E07004A3E064017022900060E0FEA331
:10063700E0FFC3900059E09FEE6480F8900058E017
:100647006480984007E4900053F0A3F0900058E0CE
:100657007004A3E0643C6003020716900058F0A3FF
:10066700F090005FE004F0700690005EE004F0E4B4
:1006770090005AF0A3F0900048E004F07006900054
:1006870047E004F0900049E0FCA3E0FD90005EE045
:10069700FAA3E0FBFFAE0212048AED4C700790004C
:1006A70053F0A304F0EB643C4A703290005EF0A371
:1006B700F090004EE004F0700690004DE004F090DA
:1006C7000049E0FCA3E0FD90004DE0FEA3E0FF122F
:1006D700048AED4C7007900053F0A304F090004794
:1006E700E07004A3E0643C7026900047F0A3F0900C
:1006F7000050E004F0700690004FE004F090004FC7
:10070700E07004A3E06418700690004FF0A3F02295
:100C4E00900051E0FEA3E0FF90004BE06E7003A316
:100C5E00E06F601212000690004BE0FFA3E09000E0
:100C6E0051CFF0A3EFF090004BE0FEA3E0FFEE704B
:100C7E0026EF1460131460131460131460131460C1
:100C8E00132405701202096F0209DF020A4F020ACD
:080C9E00B8020B21120B8A229F
:10096F0078007C007D017BFF7A0879AD7E007F0ED9
:10097F0012044B90002274FFF0A37408F0A374725A
:10098F00F090004FE0FFA3E0900025CFF0A3EFF031
:10099F00900047E0FFA3E0900027CFF0A3EFF09087
:1009AF000058E0FFA3E0900029CFF0A3EFF07B0108
:1009BF007A00790E12007B7B017A007900E4FDFF4B
:1009CF001207177B017A00790E7D01E4FF020717EA
:1009DF0078007C007D017BFF7A0879BB7E007F0E5B
:1009EF0012044B90002274FFF0A37408F0A37481DB
:1009FF00F090004DE0FFA3E0900025CFF0A3EFF0C3
:100A0F0090005EE0FFA3E0900027CFF0A3EFF090FF
:100A1F000058E0FFA3E0900029CFF0A3EFF07B0197
:100A2F007A00790E12007B7B017A007900E4FDFFDA
:100A3F001207177B017A00790E7D01E4FF02071779
:100A4F0078007C007D017BFF7A0879C97E007F0AE0
:100A5F0012044B9000557401F0A37400F0A3744F6F
:100A6F00F090005CE4F0A37418F090002274FFF093
:100A7F00A37408F0A37490F090004FE0FFA3E090F0
:100A8F000025CFF0A3EFF07B017A00790A12007BEB
:100A9F007B017A007900E4FDFF1207177B017A00D2
:090AAF00790A7D01E4FF0207173A
:100AB80078007C007D017BFF7A0879D37E007F0C6B
:100AC80012044B9000557401F0A37400F0A374470E
:100AD800F090005CE4F0A3743CF090002274FFF006
:100AE800A37408F0A37490F0900047E0FFA3E0908F
:100AF8000025CFF0A3EFF07B017A00790C12007B80
:100B08007B017A007900E4FDFF1207177B017A0068
:090B1800790C7D01E4FF020717CE
:100B210078007C007D017BFF7A0879DF7E007F0EF3
:100B310012044B9000557401F0A37400F0A37449A2
:100B4100F090005CE4F0A374F0F090002274FFF0E8
:100B5100A37408F0A37495F0900049E0FFA3E0901E
:100B61000025CFF0A3EFF07B017A00790E12007B14
:100B71007B017A007900E4FDFF1207177B017A00FF
:090B8100790E7D01E4FF02071763
:100B8A0078007C007D017BFF7A0879ED7E007F0F7B
:100B9A0012044B9000557401F0A37400F0A3746022
:100BAA00F090005CE4F0A3743CF090002274FFF033
:100BBA00A37408F0A374A0F0900060E0FFA3E09093
:100BCA000025CFF0A3EFF07B017A00790F12007BAA
:100BDA007B017A007900E4FDFF1207177B017A0096
:090BEA00790F7D01E4FF020717F9
:0B0EFE00D288D2A8D28AD2AAD2AF229A
:03000300020BF3FA
:100BF300C0E0C0F0C083C082C0D075D000C000C0C8
:070C030004C005C006C00794
:100C0A007FE87E03C2A8EF1FAC0670011E4C70F687
:100C1A0020B21A90004CE02401FF90004BE034000F
:0F0C2A00FE7C007D0612048AECF0A3EDF0D2A848
:100C3900D007D006D005D004D000D0D0D082D08340
:050C4900D0F0D0E03204
:030013000208FCE4
:1008FC00C0E0C0F0C083C082C0D075D000C000C0C2
:0D090C0001C002C003C004C005C006C00742
:100919007FE87E03C2AAEF1FAC0670011E4C70F679
:1009290020B326900055E0FBA3E0FAA3E0F91204F6
:10093900D62401FFE435F0FE90005CE0FCA3E0FD65
:0B09490012048AEC8DF0120501D2AA06
:10095400D007D006D005D004D003D002D001D000F7
:0B096400D0D0D082D083D0F0D0E032A1
:1007F200020E79E493A3F8E493A34003F68001F296
:1008020008DFF48029E493A3F85407240CC8C33307
:10081200C4540F4420C8834004F456800146F6DFD6
:10082200E4800B0102040810204080900D9EE47EBB
:10083200019360BCA3FF543F30E509541FFEE493CB
:10084200A360010ECF54C025E060A840B8E493A392
:10085200FAE493A3F8E493A3C8C582C8CAC583CABD
:10086200F0A3C8C582C8CAC583CADFE9DEE780BE75
:010DE700000B
:10037B00E709F608DFFA8046E709F208DFFA803E64
:10038B0088828C83E709F0A3DFFA8032E309F60851
:10039B00DFFA8078E309F208DFFA807088828C83B9
:1003AB00E309F0A3DFFA806489828A83E0A3F6086D
:1003BB00DFFA805889828A83E0A3F208DFFA804C47
:1003CB0080D280FA80C680D4806980F2803380101E
:1003DB0080A680EA809A80A880DA80E280CA803387
:1003EB0089828A83ECFAE493A3C8C582C8CCC583FF
:1003FB00CCF0A3C8C582C8CCC583CCDFE9DEE780CF
:10040B000D89828A83E493A3F608DFF9ECFAA9F04D
:10041B00EDFB2289828A83ECFAE0A3C8C582C8CCA3
:10042B00C583CCF0A3C8C582C8CCC583CCDFEADEBC
:10043B00E880DB89828A83E493A3F208DFF980CC1E
:10044B0088F0EF60010E4E60C388F0ED2402B40417
:10045B000050B9F582EB2402B4040050AF232345BE
:06046B0082239003CB7315
:10047100BB010689828A83E0225002E722BBFE0289
:09048100E32289828A83E49322BC
:10048A00C2D5EC30E709B2D5E4C39DFDE49CFCEE8D
:10049A0030E715B2D5E4C39FFFE49EFE12057CC384
:1004AA00E49DFDE49CFC800312057C30D507C3E47F
:0604BA009FFFE49EFE22FC
:1004C000C5F0F8A3E028F0C5F0F8E58215827002C7
:0604D0001583E038F02264
:1004D600BB010A89828A83E0F5F0A3E022500687F1
:1004E600F009E71922BBFE07E3F5F009E3192289B3
:0B04F600828A83E493F5F074019322E6
:10050100BB010A89828A83F0E5F0A3F0225006F745
:0F05110009A7F01922BBFE06F3E5F009F3192242
:10052000EB9FF5F0EA9E42F0E99D42F0E89C45F031
:0105300022A8
:0C053100ECF0A3EDF0A3EEF0A3EFF0223D
:10001600E5082422F582E43400F583E00508229001
:10002600001F300703900022E475F0011205D1028B
:1000360004712000E97F2ED2008018EF540F24901F
:10004600D43440D4FF30040BEF24BFB41A0050035D
:100056002461FFE50960021509050CE50C7002052F
:100066000B30070E90001FE475F0011205D1EF0268
:10007600056A020E527403D2078003E4C207F5082C
:1000860090001F1205E8E4F509F50BF50CE509608B
:10009600077F2012005980F5750AFFC201C200C20F
:1000A60002C203C205C206C208120025FF700D3047
:1000B60007057F0012006AAF0CAE0B22B4255FC2A3
:1000C600D5C204120025FF24D0B40A00501A75F0D8
:1000D6000A780930D50508B6FF0106C6A426F6201B
:1000E600D5047002D20380D924CFB41A00EF50048D
:1000F600C2E5D20402026BD20180C6D20080C0D211
:100106000280BCD2D580BAD20580B47F20120059B5
:100116002002077401B5090040F1120016FF120013
:1001260059020093D208D2068095120016FB1200DF
:1001360016FA120016F94A4B7006793C7A037BFFD1
:1001460020022EE509602A7E008E82758300120544
:100156003D60060EEE650A70F0C2D5EBC0E0EAC05F
:10016600E0E9C0E0EE1202B2D0E0F9D0E0FAD0E069
:10017600FB120471FF60AAEBC0E0EAC0E0E9C0E050
:10018600120059D0E02401F9D0E03400FAD0E0FBA7
:10019600E50A0460DCD50AD980877BFF7A0279AE4E
:1001A600D202809C791080027908C206C2088008B3
:1001B600D2D5790A8004790AC2D5E50A047002F517
:1001C6000AE4FAFDFEFF120016FC7B08200113125A
:1001D6000016FD7B1030000A120016FE120016FFF4
:1001E6007B20EC3382D592D55013C3E43000069FB2
:1001F600FFE49EFEE42001039DFDE49CFCE4CBF8B5
:10020600C201EC700CCFCECDCCE824F8F870F380A8
:1002160017C3EF33FFEE33FEED33FDEC33FCEB3368
:10022600FB994002FB0FD8E9EB300105F8D0E0C49A
:1002360048B201C0E00AEC4D4E4F78207B0070C2F8
:10024600EAB50A0040BCC0E01202B4D0F0D0E0200B
:100256000104C4C0E0C4B201C0F0120042D0F0D51F
:10026600F0EB0200931205F101305301AA58010187
:100276004C00FD4201AE4F01B64401B6490116439A
:0802860001BC5501A04601A0D6
:10028E004501A047035C5001052D01092E012C2BC1
:10029E00010D23012A2003452A00C5480000012430
:1002AE003F3F3F00790AA2D5200314300509B9104B
:1002BE00020404B9080104A2D5200602500104204C
:1002CE0002689202B509005034C0E07F2030031955
:1002DE007F30A20272067205500F12030BC202C2C9
:1002EE0006C205C2087F30800F300503E9C0E01258
:1002FE000059300503D0E0F9D0E0B509CC30051730
:10030E007F30B9100C1200597F583004077F788067
:10031E0003B908031200593002057F2D0200597FE0
:10032E00202008F87F2B2006F322920280CF286E21
:10033E00756C6C2900D2011200163001F8C20178DA
:10034E000930D50108F60200C52D50434958120058
:10035E00162403B405004001E49003579312004A9B
:0D036E00743A12004AD2037509040201AA74
:10053D00BB010CE58229F582E5833AF583E0225073
:10054D0006E92582F8E622BBFE06E92582F8E222BD
:0D055D00E58229F582E5833AF583E49322D7
:10056A00BB010689828A83F0225002F722BBFE0170
:02057A00F3226A
:10057C00BC000BBE0029EF8DF084FFADF022E4CC63
:10058C00F875F008EF2FFFEE33FEEC33FCEE9DEC2C
:10059C00984005FCEE9DFE0FD5F0E9E4CEFD22ED72
:1005AC00F8F5F0EE8420D21CFEADF075F008EF2FBC
:1005BC00FFED33FD4007985006D5F0F222C398FDAD
:0505CC000FD5F0EA224A
:1005D100F8E0FBA3A3E0F925F0F0E58215827002B3
:0705E1001583E0FA38F02257
:0905E800EBF0A3EAF0A3E9F02214
:1005F100D083D082F8E4937012740193700DA3A399
:1006010093F8740193F5828883E4737402936860AC
:06061100EFA3A3A380DFAC
:100E5200EFB40A07740D120E5D740A309811A89946
:100E6200B8130CC2983098FDA899C298B811F63000
:070E720099FDC299F59922D8
:00000001FF
