:030000000205787E
:0C057800787FE4F6D8FD7581AC0205BF69
:1004E800104A3F065B4F666D7D077F6F777C395EEC
:1004F8007971202E0A777C395E79713D760F0E75F9
:100508003837545C73673149783E1C7E646E5901F4
:100518000F10083F065B4F666D7D077F6F777C394C
:100528005E7971105A000000040008000C001000E9
:10053800140018001C1087001D001D001D0012006B
:10054800040013001D001D1075001D001D0004008F
:100558000D001300040011001D1097001D001D0060
:0F0568001D001D001D001D001D001D02080000CC
:0B084600EF1FAC0670011E4C70F62284
:1007B0007B017A00EF64014EEB64014A703130B185
:1007C0000930B00630B20320B325E4FAFB7F107E77
:1007D0002712084620B1057E007F012220B0057E49
:1007E000007F02227E0020B2037F03227F0422E4E6
:0207F000FEFF0A
:0107F20022E4
:1006040075900FE590640F60797FE87E03120846C9
:10061400E590640F607175900FAF90EF24F560134F
:1006240024FE601714601C2407701E7508007509E9
:10063400018016750800750902800E750800750999
:100644000380067508007509047590F0AF90EF24D7
:1006540050601424E0601424F060142470701B852E
:1006640008088509098013740480067408800274DC
:100674000C2509F509E43508F508E59064F06007F0
:0B06840080F8E4F508F509AE08AF09A6
:01068F002248
:100690008B708A718972E47885F608F678A9F60875
:1006A000F618F608F678A9E6FE08E6FFFDC374071B
:1006B0009D25E0245AF808E6F5A0EF25E0FFEE338B
:1006C000AB70AA71A9728F82F5831202A8240AF86E
:1006D000E6F5807F647E00120846E4F58078AA067D
:1006E000E618700106C378AAE6940818E6648094B8
:1006F0008040B2E4FFFE1207B07885EEF608EFF610
:100700004E60937F107E27120846E66404184670F8
:02071000852240
:1007F3001206047885EEF608EFF64E6024E624FF31
:10080300FD18E634FFFC78A8E625E0FF18E6338FF1
:1008130082F583EC8DF01202E078A806E6187001E9
:100823000678A8E6640218466008E47885F608F6B8
:0308330080BE2262
:10043C008B708A7189727874E6184670030204E72F
:10044C00E47885F608F678A7F608F608F608F6AB11
:10045C0070AA71A9721207F3E4FFFE1207B0788537
:10046C00EEF608EFF64E601F18E6FE08E6FF640194
:10047C004E60C3EF64044E700E7873F608F67FE896
:10048C007E0312084680AFE478A9F608F6C378AA72
:10049C00E6940218E66480948050BDE6FE08E6FF00
:1004AC00FDC374079D25E0245AF808E6F5A0EF2556
:1004BC00E0FFEE33AB70AA71A9728F82F583120242
:1004CC00A8244AF8E6F5807F0A7E00120846E4F577
:0C04DC008078AA06E61870B50680B222EF
:10083600438901853F8C85478AD2A9D2AFD28C22C3
:10000E007B007A0079871206907873760008760165
:10001E007B007A00796A12043CAE6AAF6B7C007D7D
:10002E000A120260E56D2FF56FE56C3EF56E7548B0
:10003E0000754967FEAF6F0C7DCD1202601C7D64AA
:10004E00120272AA06EA3395E0F9F8C374FF9FFF15
:10005E0074FF9AFEE499FDE498FCC004C005C00646
:10006E00C007AE6EAF6F7C017DCD1202601C7D6449
:10007E00120272AB07AA06EA3395E0F9F8D007D060
:10008E0006D005D004C3EF9BFBEE9AFAED99F9EC7E
:10009E0098F8E4FCFDEB2549FFEA3548FEED39FD05
:1000AE00EC38FCE4FB7A01F9F812076C8F3F8E3EB8
:1000BE008D3D8C3CAE6EAF6F7C017DCD1202601C0F
:1000CE007D64120272AA06EA3395E0F9F8C374FF52
:1000DE009FFF74FF9AFEE499FDE498FCC004C005EE
:1000EE00C006C007AE6EAF6F7C017DCD1202601CE4
:1000FE007D64120272AB07AA06EA3395E0F9F8D0D6
:10010E0007D006D005D004C3EF9BFBEE9AFAED990B
:10011E00F9EC98F8E4FCFDEB2549FFEA3548FEEDD5
:10012E0039FDEC38FCE4FB7A01F9F812076CAC00EF
:10013E00AD01AE02AF038F478E468D458C44AE6E39
:10014E00AF6F7C017DCD1202601C7D64120272EED7
:10015E003395E0FDFCEF2465FFEE34FCFEE43DFD3F
:10016E00E43CFCC004A905AA06AB07AE6EAF6F7CDB
:10017E00017DCD1202601C7D64120272EE3395E099
:10018E00FDFCD000EB2FFBEA3EFAE93DF9E83CF826
:10019E00E4FCFDEB2549FFEA3548FEED39FDEC3870
:1001AE00FCE4FB7A01F9F812076C8F3B8E3A8D391D
:1001BE008C38AE6EAF6F7C017DCD1202601C7D64FB
:1001CE00120272EE3395E0FDFCEF2465FFEE34FC77
:1001DE00FEE43DFDE43CFCC004A905AA06AB07AE57
:1001EE006EAF6F7C017DCD1202601C7D64120272B7
:1001FE00EE3395E0FDFCD000EB2FFBEA3EFAE93D35
:10020E00F9E83CF8E4FCFDEB2549FFEA3548FEED44
:10021E0039FDEC38FCE4FB7A01F9F812076CAC00FE
:10022E00AD01AE02AF038F438E428D418C4012085A
:10023E0036E56B241E78A4F6E4356A18F6E56D24CF
:10024E001E78A6F6E4356C18F67B007A00799702D4
:02025E00069008
:03000B00020712D7
:10071200C0E0C0F0C083C082C0D075D000C000C0AD
:1007220004C005C006C007B2B4A2B4E4FE33780226
:10073200C333CE33CED8F92438F812030D8F8CA2EE
:10074200B4E4FE337802C333CE33CED8F92440F872
:1007520012030D8F8AD007D006D005D004D000D066
:0A076200D0D082D083D0F0D0E03276
:1005840002000EE493A3F8E493A34003F68001F27F
:1005940008DFF48029E493A3F85407240CC8C33378
:1005A400C4540F4420C8834004F456800146F6DF47
:1005B400E4800B01020408102040809004E8E47EEB
:1005C400019360BCA3FF543F30E509541FFEE4933C
:1005D400A360010ECF54C025E060A840B8E493A303
:1005E400FAE493A3F8E493A3C8C582C8CAC583CA2E
:1005F400F0A3C8C582C8CAC583CADFE9DEE780BEE6
:010577000083
:10026000EF8DF0A4A8F0CF8CF0A428CE8DF0A42EB2
:02027000FE226C
:10027200C2D5EC30E709B2D5E4C39DFDE49CFCEEA7
:1002820030E715B2D5E4C39FFFE49EFE120319C303
:10029200E49DFDE49CFC800312031930D507C3E4FE
:0602A2009FFFE49EFE2216
:1002A800BB0110E58229F582E5833AF583E0F5F094
:1002B800A3E0225009E92582F886F008E622BBFE71
:1002C8000AE92582F8E2F5F008E222E5832AF583B7
:0802D800E993F5F0A3E993227C
:1002E000F8BB0111E58229F582E5833AF583E8F050
:1002F000E5F0A3F0225009E92582C8F608A6F0220D
:0D030000BBFE09E92582C8F2E5F008F222F3
:10076C00C2D5E830E70FB2D5E4C39BFBE49AFAE4B8
:10077C0099F9E498F8EC30E717B2D51207A21203F6
:10078C00AAE4C39BFBE49AFAE499F9E498F8800391
:10079C001203AA30D50DE4C39FFFE49EFEE49DFD39
:0407AC00E49CFC22AB
:0C030D00E6FC08E6FD08E6FE08E6FF221C
:10031900BC000BBE0029EF8DF084FFADF022E4CCC8
:10032900F875F008EF2FFFEE33FEEC33FCEE9DEC91
:10033900984005FCEE9DFE0FD5F0E9E4CEFD22EDD7
:10034900F8F5F0EE8420D21CFEADF075F008EF2F21
:10035900FFED33FD4007985006D5F0F222C398FD12
:050369000FD5F0EA22AF
:10036E0075F008758200EF2FFFEE33FECD33CDCC46
:10037E0033CCC58233C5829BED9AEC99E5829840C9
:10038E000CF582EE9BFEED9AFDEC99FC0FD5F0D6A6
:10039E00E4CEFBE4CDFAE4CCF9A88222B800C1B9D0
:1003AE000059BA002DEC8BF084CFCECDFCE5F0CB0E
:1003BE00F97818EF2FFFEE33FEED33FDEC33FCEB47
:1003CE0033FB10D703994004EB99FB0FD8E5E4F902
:1003DE00FA227818EF2FFFEE33FEED33FDEC33FCEF
:1003EE00C933C910D7059BE99A4007EC9BFCE99AE3
:1003FE00F90FD8E0E4C9FAE4CCFB2275F010EF2F28
:10040E00FFEE33FEED33FDCC33CCC833C810D70727
:10041E009BEC9AE899400AED9BFDEC9AFCE899F862
:0E042E000FD5F0DAE4CDFBE4CCFAE4C8F922F5
:00000001FF
