:0300000002153EA8
:0C153E00787FE4F6D8FD75812102158548
:10178A0044006A00000000602800420000000000D7
:10179A00000000000000000000000000000000003F
:1017AA00000000000000000000000000000000002F
:0317BA000000002C
:031AC600C2A02299
:0614200090000E120827E7
:10142600900012E4F0A37409F0900012E0FEA3E02D
:10143600FFD39400EE64809480405AEF7802C33361
:10144600CE33CED8F9243EF58274003EF583E0FC17
:10145600A3E0FDA3E0FEA3E0FFC004C005C006C0F4
:1014660007900012E0FEA3E07802C333CE33CED855
:10147600F92442F58274003EF583D007D006D005E4
:10148600D004120827900013E024FFF0900012E029
:1014960034FFF0809490000EE0FCA3E0FDA3E0FE94
:0914A600A3E0FF900042020827B8
:1014AF0090001012083300000000E490000EF0A32B
:1014BF00F0900010E0FCA3E0FDA3E0FEA3E0FFC06E
:1014CF0004C005C006C00790000EE0FEA3E078023E
:1014DF00C333CE33CED8F92442F58274003EF58360
:1014EF00E0F8A3E0F9A3E0FAA3E0FBD007D006D021
:1014FF0005D00412002D90001012082790000FE065
:10150F0004F0700690000EE004F090000EE07004FE
:10151F00A3E0640A709BE4FBFA79207841900010F5
:0E152F00E0FCA3E0FDA3E0FEA3E0FF12022714
:01153D00228B
:0615CA0090009D120827AD
:1015D0001214AF9000A1120827E4FFFE7D407CC0EA
:1015E0009000A1E0F8A3E0F9A3E0FAA3E0FB120069
:1015F0002D90009DE0F8A3E0F9A3E0FAA3E0FB1230
:1016000002C4600B4009E4FFFE7D807C3F8005E45E
:10161000FFFEFDFCC004C005C006C007E4FFFE7D60
:10162000407C409000A1E0F8A3E0F9A3E0FAA3E039
:10163000FB12002DA804A905AA06AB07D007D00607
:10164000D005D0041202C4600740057E007F01224D
:03165000E4FEFFB6
:011653002274
:100ED800C2A0E4FFFE0FBF00010EBE02F8BF58F526
:100EE800D2A030A1FD9000ADE0FCA3E0FDA3E0FEA0
:100EF800A3E0FF900006120827AF8CC374FF9FFF82
:100F0800EFFEAD8AC374FF9DCDE49400CD2400FFAD
:100F1800ED3E900000F0A3EFF020A1FD9000ADE0C1
:100F2800FCA3E0FDA3E0FEA3E0FF90000A1208275F
:100F3800AF8CEF2404FFEFFEAD8AED24E8FDE43426
:100F4800FFCD2400FFED3E900002F0A3EFF09000EB
:100F580006E0FCA3E0FDA3E0FEA3E0FFA3E0F8A306
:100F6800E0F9A3E0FAA3E0FBD31208004058900090
:100F780006E0F8A3E0F9A3E0FAA3E0FBA3E0FCA3F2
:100F8800E0FDA3E0FEA3E09BFFEE9AFEED99FDECE9
:100F980098FCEF24FFFFEE34FFFEED34FFFDEC3448
:100FA800FFFCE47BE87A03F9F81207A3900000E05D
:100FB800FCA3E0FD900003E02DFD900002E03CCD95
:100FC8002FFFED3E8034900006E0FCA3E0FDA3E097
:100FD800FEA3E0FFA3E0F8A3E0F9A3E0FAA3E0FB97
:100FE800C3120800701B900002E0FEA3E0FFC3904C
:100FF8000001E09FFF900000E09E900004F0A3EF46
:10100800F0900004E0FCA3E0FDEC1203367B007ACC
:10101800387947784812011E7B007A1B7937784B5C
:0F1028001202271214201214AF90006A02082738
:101A4500C2A6C2A5C2A78F807F017E0012183FD211
:0B1A5500A77F017E0012183FC2A722ED
:0F19F100900013E0FBA3E0FAA3E0F9120698FFC1
:101A0000D2A6C2A5C2A78F807F017E0012183FD246
:0B1A1000A77F017E0012183FC2A72232
:101A78007F38121A457F0C121A457F06121A457FC5
:041A880001021A45F8
:050006007F01021A4514
:0E11F100900012EFF0A3EBF0A3EAF0A3E9F0F8
:1011FF00E4A3F0EDD3940140030212BF900012E07C
:10120F00940F40030212BFEDC3940150539000138B
:10121F00E0FBA3E0FAA3E0F912069870030212BFF5
:10122F00900012E0FFC374109FFE900016E0FDC304
:10123F009E5008ED2480FEEF2E800C900012E0FFF0
:10124F00900016E02F24B0FF121A451219F19000EA
:10125F0014E475F00112078D900016E004F080ADD4
:10126F00900013E0FBA3E0FAA3E0F91206986040A8
:10127F00900012E0FFC374109FFE900016E0FDC3B4
:10128F009E5008ED24C0FEEF2E800C900012E0FF60
:10129F00900016E02F2470FF121A451219F19000DA
:1012AF0014E475F00112078D900016E004F080B081
:0112BF00220C
:10103700E4FFFE7D207C4190006AE0F8A3E0F9A37D
:10104700E0FAA3E0FB12011E12036FAB07AA067CAE
:10105700037DE8120702EF2430900000F07C037D47
:10106700E8AF03AE021207027E007F64CFCDCFCE7A
:10107700CCCE120702EF2430A3F07C007D64AF03CF
:10108700AE021207027E007F0ACFCDCFCECCCE12A2
:101097000702EF2430A3F0A3742EF0AE02AF037C57
:1010A700007D0A120702ED2430A3F0E4A3F0FFFE4F
:1010B70074002FF58274003EF583E0FDC394304041
:1010C70006EDD3943940070FBF00010E80E2E4FD1F
:1010D700FCC3EF9406EE64809480502474002FF5CF
:1010E7008274003EF583E0FB74A52DF58274003C05
:1010F700F583EBF00FBF00010E0DBD00010C80D191
:0D1107007B017A0079A5E4FD7F080211F15B
:05000E00D290C2912216
:051AC100C290D2912249
:101A8C00438901758CFC758A18D2A9D2AFD28C22ED
:0C17BD004400AD000000004200AB00073B
:0B001600EF1FAC0670011E4C70F622BC
:08183F00900017EEF0A3EFF09A
:101847009000ADE0FCA3E0FDA3E0FEA3E0FF900065
:1018570019120827900017E0FEA3E0FFE4FCFDA3A0
:10186700E0F8A3E0F9A3E0FAA3E02FFFEA3EFEEDDC
:1018770039FDEC38FC9000ADE0F8A3E0F9A3E0FAFD
:09188700A3E0FBD312081640CBCC
:011890002235
:03000B0002189147
:10189100C0E0C0F0C083C082C0D075D000C000C01D
:1018A10004C005C006C007758CFC758A189000AD90
:1018B100E0FCA3E0FDA3E0FEA3E02401FFE43EFE83
:1018C100E43DFDE43CFC9000AD120827D007D006B2
:1018D100D005D004D000D0D0D082D083D0F0D0E0D9
:0118E10032D4
:0B1AAA00D288D2A8D28AD2AAD2AF22E2
:10137D009000ABE0FEA3E0FF7C007D0A1206F0AB0F
:10138D0007AA067C037DE8120702EF2430900000C7
:10139D00F07C037DE8AF03AE021207027E007F648E
:1013AD00CFCDCFCECCCE120702EF2430A3F07C00F0
:1013BD007D64AF03AE021207027E007F0ACFCDCF50
:1013CD00CECCCE120702EF2430A3F0A3742EF0AED4
:1013DD0002AF037C007D0A120702ED2430A3F0E476
:1013ED00A3F0FFFE74002FF58274003EF583E0FD3F
:1013FD00C394304006EDD3943940070FBF00010E62
:10140D0080E274002FF974003EFA7B017D017F08A4
:03141D000211F1C8
:0300030002172BB6
:10172B00C0E0C083C082C0D075D000C004C005C06B
:03173B0006C007DE
:10173E007FE87E03C2A8EF1FAC0670011E4C70F648
:10174E0020B2269000ABE0FEA3E0FFC3EE648094CF
:10175E008050067E007F008008EF24FFFFEE34FFEE
:0B176E00FE9000ABEEF0A3EFF0D2A85D
:10177900D007D006D005D004D0D0D082D083D0E015
:01178900322D
:030013000216CB07
:1016CB00C0E0C083C082C0D075D000C004C005C0CC
:0316DB0006C0073F
:1016DE007FE87E03C2AAEF1FAC0670011E4C70F6A7
:1016EE0020B3279000ABE0FEA3E0FFD3940FEE648F
:1016FE0080948040067E007F0F8007EF2401FFE478
:0C170E003EFE9000ABEEF0A3EFF0D2AA7C
:10171A00D007D006D005D004D0D0D082D083D0E074
:01172A00328C
:1018E2009000ACE02401FD9000ABE03400FC120358
:1018F2003690006AE0F8A3E0F9A3E0FAA3E0FB1255
:1019020002C45003021AC19000ACE024FFFD900013
:10191200ABE034FFFC12033690006AE0F8A3E0F972
:10192200A3E0FAA3E0FB1202C46005400312000E1A
:011932002292
:1016540041542B43495053454E443D302C370041AF
:10166400542B43574D4F44453D320041542B43576F
:101674005341503D225052454348494E222C22703A
:1016840072656368696E313638222C31312C300032
:1016940041542B43495041503D223139322E313689
:1016A400382E342E31220041542B4349504D555885
:1016B4003D310041542B4349505345525645523D08
:0716C400312C3830383000F2
:0917C90042008F00004100840081
:101A6000439850438920758780758DF3858D8BC28F
:081A7000ACD2AFD28ED2992254
:0E1A9C00C2ACC2998F993099FDC299D2AC228A
:101933009000B1EBF0A3EAF0A3E9F09000B1E0FB73
:10194300A3E0FAA3E0F9120698FF6016121A9C7F2F
:10195300057E001200169000B2E475F00112078DA7
:1019630080D97F057E001200167F0D121A9C7F0519
:101973007E001200167F0A121A9C7FE87E0302186B
:011983003F24
:101984009000B4EBF0A3EAF0A3E9F07BFF7A1679B8
:10199400541219339000B4E0FBA3E0FAA3E0F91267
:1019A4000698FF6016121A9C7F057E00120016909E
:1019B40000B5E475F00112078D80D97F0A021A9CE4
:1019C4007BFF7A1679631219337BFF7A16796F12CB
:1019D40019337BFF7A1679941219337BFF7A1679BF
:0D19E400AB1219337BFF7A1679B702193365
:061AB500121A60D2AC22FF
:030023000212C006
:1012C000C0E0C083C082C0D075D000C002C003C0DF
:0712D00004C005C006C007C1
:1012D700209803021368C298900084E0FF2485F5E4
:1012E70082E43400F583E599F0EF640370629000BF
:1012F70084F0900088E0FFB42B299000ABE0FCA3BA
:10130700E0FDD3940FEC6480948040067C007D0F51
:101317008007ED2401FDE43CFC9000ABECF0A3ED6D
:10132700F0803EEF642D70399000ABE0FEA3E0FF44
:10133700C3EE6480948050067E007F008008EF240F
:10134700FFFFEE34FFFE9000ABEEF0A3EFF080114D
:10135700900085E0900084B44005E004F08002E44A
:01136700F095
:10136800D007D006D005D004D003D002D0D0D08288
:05137800D083D0E0323B
:061ABB00AE07121A9C2286
:101A1B0057454C4C434F4D45210A0D00443A256424
:101A2B007C004C3A25647C0063757272656E743A67
:0A1A3B000073657474696E673A0069
:1017E80078007C007D017BFF7A1A79337E007F09BF
:1017F80012067278097C007D017BFF7A1A793C7E9B
:10180800007F09120672121A8C121AAA121AC6122C
:101818001AB57BFF7A1A791B120915121A787B01FF
:101828007A007900E4FDFF1211F17B017A00790951
:071838007D01E4FF0211F144
:101114001217E8120ED812103712137D90006AE0ED
:10112400FCA3E0FDA3E0FEA3E0FF12036FC3EE64A3
:10113400809480400BD3EF940FEE6480948040122F
:10114400C3EE648094807E0050047F0080157F0F7E
:10115400801190006AE0FCA3E0FDA3E0FEA3E0FFA1
:1011640012036F900015EEF0A3EFF07BFF7A1A796B
:101174002712091590006AE0FCA3E0FDA3E0FEA39A
:10118400E0FF12036FC3EE64809480400BD3EF94AE
:101194000FEE648094804012C3EE648094807E00DD
:1011A40050047F6480297F00802590006AE0FCA3BE
:1011B400E0FDA3E0FEA3E0FF12036FC3740F9FFFE3
:1011C400E49EFE7C007D641206F07D0F12075790AA
:1011D4000015EEF0A3EFF07BFF7A1A792D120915B2
:0D11E4001218E27F647E0012183F021117FE
:1017D2004400910000000044009500000000440015
:0517E200990000000069
:060D2D0090006E12082781
:100D33009000801208330000000090007CE0FEA3C6
:100D4300E0FFC390007BE09FFD90007AE09EFC12E1
:100D53000336900091120827900095E0F8A3E0F97C
:100D6300A3E0FAA3E0FB900091E0FCA3E0FDA3E085
:100D7300FEA3E0FF12002990009512082790007E41
:100D8300E07004A3E064016003020E41FFFEFD7CFA
:100D930040900095E0F8A3E0F9A3E0FAA3E0FB128A
:100DA300011EA804A905AA06AB07900091E0FCA3C5
:100DB300E0FDA3E0FEA3E0FF120029900099E0F814
:100DC300A3E0F9A3E0FAA3E0FB12002D900099122F
:100DD3000827900099E0FCA3E0FDA3E0FEA3E0FF59
:100DE300900072E0F8A3E0F9A3E0FAA3E0FB12019C
:100DF3001EC004C005C006C007900091E0FCA3E03C
:100E0300FDA3E0FEA3E0FF90006EE0F8A3E0F9A3EA
:100E1300E0FAA3E0FB12011ED003D002D001D00000
:100E230012002DC004C005C006C007900095E0FC69
:100E3300A3E0FDA3E0FEA3E0FF90007680429000D4
:100E43007EE07002A3E07057900095E0FCA3E0FD04
:100E5300A3E0FEA3E0FF900076E0F8A3E0F9A3E0AF
:100E6300FAA3E0FB12011EC004C005C006C0079030
:100E73000091E0FCA3E0FDA3E0FEA3E0FF90006E81
:100E8300E0F8A3E0F9A3E0FAA3E0FB12011ED0030C
:100E9300D002D001D00012002D90008012082790BC
:100EA3000095E0FCA3E0FDA3E0FEA3E0FFA312088E
:100EB30027900091E0FCA3E0FDA3E0FEA3E0FFA3E5
:100EC300120827900080E0FCA3E0FDA3E0FEA3E06E
:040ED300FF12036F98
:010ED70022F8
:100026000203DBE86480F8E933E83360110460F02A
:10003600ED33EC337009E8FCE9FDEAFEEBFF220440
:1000460060DED3EB9FEA9EE99DE8C2E78CF0C2F73B
:1000560095F0400CE8CCF8E9CDF9EACEFAEBCFFB07
:100066001203A685D0F05804700320D5B3E80470B7
:10007600075002B2D50203E592D5EC0460F7E4CC52
:10008600C0E0C398F8603B94186008400DD0E0FBD0
:100096000203BDE4FBFAC9FC8028E830E406E4C9A3
:1000A600FBE4CAFCE830E305E4C9CACBFCE8540724
:1000B6006010F8C3E913F9EA13FAEB13FBEC13FC2F
:1000C600D8F130F52FC3E49CFCEF9BFFEE9AFEEDD2
:1000D60099FDD0E0FBEF4E4D4C701222DB0302037C
:1000E600E2EC2CFCEF33FFEE33FEED33FDED30E7B3
:1000F600EB0203BDEF2BFFEE3AFEED39FDD0E0FB40
:1001060050130BBB00030203E5ED13FDEE13FEEFE8
:0801160013FFEC13FC0203BD12
:10011E00EC4D6011E8497017ED33EC3304600DE4DB
:10012E00FCFFFEFD22E933E8330470F80203DB1214
:10013E0003A658046009E4CC248150062850090215
:10014E0003E52840030203E2C0E0EB4A7044B980A5
:10015E0006D0E0FB0203D1EF4E701CBD8008EBFF12
:10016E00EAFEE9FD80EBE98DF0A4FEE5F002020760
:10017E00E9CDF9EAFEEBFFEF89F0A4FCE5F0CE89BC
:10018E00F0A42EFFE435F0CD89F0A42DFEE435F079
:10019E008067EF4E7005BD80D780C3EF8BF0A4ACA7
:1001AE00F0EE8BF0A42CFCE435F0F8EF8AF0A42CE2
:1001BE00E5F038FCE433CB8DF0A42CFCE5F03BF8F5
:1001CE00EE8AF0A42CFCE5F038F8E433CF89F0A4E5
:1001DE002CFCE5F038CF3400CE89F0A42FFFE5F0EB
:1001EE003EFEE433C98DF0A42EFEE5F039CD8AF043
:1001FE00A42FFFE5F03EFEE43DFD33D0E0FB5007BB
:10020E000BBB000F0203E5EC2CFCEF33FFEE33FECD
:06021E00ED33FD0203BDFB
:100224000203E5EC5D046005E8590470030203DB96
:100234001203A6580460F6EC4860F2EC7004FDFE6C
:10024400FF22C860DB2481C85009C39860025006AD
:100254000203E29850CAF582E9294B4A7005AB8241
:100264000203D175F0007C1A7880C3EF9BEE9AEDFF
:1002740099400DC3EF9BFFEE9AFEED99FDE842F025
:10028400DC23ACF0D0E0FFD0E0FED0E0FDAB822078
:10029400E7101BEB60BAEC2CFCEF33FFEE33FEED02
:1002A40033FD0203BDE803F830E705C0F075F00044
:1002B400EF2FFFEE33FEED33FD40B830E7C280AAE6
:1002C40074F8CC6480CCC86480C8F582046043C3ED
:1002D400EB9FF5F0EA9E42F0E99D42F0E89C45F080
:1002E40060305018E5825FFFE582F42B5582FB50A5
:1002F400210ABA001D09B90019088016E5825BFBC2
:10030400E582F42F5582FF50090EBE00050DBD0095
:10031400010CC3EB9FF5F0EA9E42F0E99D42F0E840
:0D0324009C45F06007CC4820E701B3EC22B7
:1003310075F020800E75F010800575F0087D007E47
:10034100007F003392D530D5031207F2EC33401011
:10035100EF33FFEE33FEED33FDEC33FCD5F0ED2250
:0E036100E5F0247EA2D513CC92E7CDCEFF228C
:10036F00EDD2E7CD33EC3392D524814006E4FFFE86
:10037F00FDFC22FCE4CFCECDCC24E0501174FF80E5
:10038F00EDC3CC13CCCD13CDCE13CECF13CF047082
:07039F00F030D5DE0207F289
:1008AA00E5082415F582E43400F583E00508229072
:1008BA000012300703900015E475F0011208640273
:1008CA0006982000E97F2ED2008018EF540F24905A
:1008DA00D43440D4FF30040BEF24BFB41A005003C1
:1008EA002461FFE50960021509050CE50C70020593
:1008FA000B30070E900012E475F001120864EF0243
:10090A0006DE021ABB7403D2078003E4C207F508A5
:10091A0090001212087BE4F509F50BF50CE5096065
:10092A00077F201208ED80F5750AFFC201C200C2D6
:10093A0002C203C205C206C2081208B9FF700D300E
:10094A0007057F001208FEAF0CAE0B22B4255FC26A
:10095A00D5C2041208B9FF24D0B40A00501A75F09F
:10096A000A780930D50508B6FF0106C6A426F6207E
:10097A00D5047002D20380D924CFB41A00EF5004F0
:10098A00C2E5D204020BF0D20180C6D20080C0D2E6
:10099A000280BCD2D580BAD20580B47F201208ED7D
:1009AA002002077401B5090040F11208AAFF1208D3
:1009BA00ED020927D208D20680951208AAFB12086E
:1009CA00AAFA1208AAF94A4B700679EE7A0C7BFF4A
:1009DA0020022EE509602A7E008E827583001206A7
:1009EA00B160060EEE650A70F0C2D5EBC0E0EAC04F
:1009FA00E0E9C0E0EE120C51D0E0F9D0E0FAD0E024
:100A0A00FB120698FF60AAEBC0E0EAC0E0E9C0E08A
:100A1A001208EDD0E02401F9D0E03400FAD0E0FB6E
:100A2A00E50A0460DCD50AD98087D20280A2120CBA
:100A3A003360F7E50A7001041203F0A90A600DE5B4
:100A4A000A600914F50A120CDBEF60F3EA30E702D8
:100A5A00F404C3995079EAF4250A0430E701E4045E
:100A6A00F50A800D120C3360C1EA050A250A120341
:100A7A00F0EA900041F030E701E4250A04D50A04BF
:100A8A0020050114120C51E4C0E0120CDB90004165
:100A9A00E0601320E70714F01208D5802204F0D092
:100AAA00E014C0E07F001208D5E50A60071208CCFE
:100ABA00150A800B3005031208CCD0E0020927D0B2
:100ACA00E00480C4120C33609EE50A041203F0901D
:100ADA000041EAF0E50A2005026001042404120C30
:010AEA0051BA
:100AEB0074FF04C0E0120CDB1208D5E50A200502E6
:100AFB0060031208CCD0E0B50AE87F451208DF90FE
:100B0B000041E07F2B30E7047F2DF404C0E0120896
:100B1B00EDD0E075F00A84C0F01208D6D0E01208D0
:100B2B00D6020927791080027908C206C20880080C
:100B3B00D2D5790A8004790AC2D5E50A047002F588
:100B4B000AE4FAFDFEFF1208AAFC7B08200113122F
:100B5B0008AAFD7B1030000A1208AAFE1208AAFF91
:100B6B007B20EC3382D592D55013C3E43000069F23
:100B7B00FFE49EFEE42001039DFDE49CFCE4CBF826
:100B8B00C201EC700CCFCECDCCE824F8F870F3801A
:100B9B0017C3EF33FFEE33FEED33FDEC33FCEB33DA
:100BAB00FB994002FB0FD8E9EB300105F8D0E0C40C
:100BBB0048B201C0E00AEC4D4E4F78207B0070C26A
:100BCB00EAB50A0040BCC0E0120C53D0F0D0E020D4
:100BDB000104C4C0E0C4B201C0F01208D6D0F0D5F5
:100BEB00F0EB02092712088409C4530B2F580995FF
:100BFB004C0991420B334F0B3B440B3B4909AA4326
:100C0B000B41550A6E460ACE450A38470D0E500960
:100C1B00992D099D2E09C02B09A12309BE200CF784
:100C2B002A095948000009B8E50AB4FF03750A06FA
:100C3B001208AAFC1208AAFD1208AAFE1208AAFFA3
:100C4B0090003A02042D790AA2D52003143005092D
:100C5B00B910020404B9080104A2D5200602500100
:100C6B00042002689202B509005034C0E07F2030A6
:100C7B0003197F30A20272067205500F120CAAC222
:100C8B0002C206C205C2087F30800F300503E9C0DF
:100C9B00E01208ED300503D0E0F9D0E0B509CC3017
:100CAB0005177F30B9100C1208ED7F583004077F01
:100CBB00788003B908031208ED3002057F2D020876
:100CCB00ED7F202008F87F2B2006F322920280CFA5
:100CDB007F00B40700500B243AF582E43400F5830F
:100CEB00E0FF22286E756C6C2900D2011208AA3025
:100CFB0001F8C201780930D50108F60209592D50C7
:100D0B004349581208AA2403B405004001E4900D8E
:100D1B0009931208DE743A1208DED2037509040235
:020D2B000B2F8C
:1003A600E9D2E7C933E833F892D5EDD2E7CD33EC9D
:0703B60033FC5002B2D52216
:1003BD00EC30E7100FBF000C0EBE00080DBD0004A1
:1003CD000BEB6014A2D5EB13FCED92E7FD2274FF4D
:1003DD00FCFDFEFF22E480F8A2D574FF13FC7D80A6
:0303ED00E480EFBA
:1003F000F920E73624F950037907E4F42402FBE5F9
:1004000082158270021583DBF6E024FB501BE96045
:1004100014E4F0E582158270021583E004F0B40A5A
:0D04200008E4F0D9EE7401F00A22C2D522E2
:10042D00ED33EC3392D5FA602AB4FF33EDC2E77B9E
:10043D00FF60067A047952E4227A04795B20D504B0
:10044D007A047956224E614E002B494E46002D49B5
:10045D004E4600E47A08F0A3DAFC7B00740722C054
:10046D0083C082ECC0E0EDC0E0EEC0E0EFC0E0EA9A
:10047D0075F010A4CAABF075F04DA42BFBE435F06C
:10048D00FCEA2410FAEB34C5FBEC34D9FCEDC2E7E1
:10049D00FF75F056A4F42411C5F0F434C58FF0A403
:1004AD002AE5F03BE43CF020E714120562D0E0FFB2
:1004BD00D0E0FED0E0FDD0E0FC1202278014F40461
:1004CD00120562D0E0FFD0E0FED0E0FDD0E0FC12DE
:1004DD00011ED082D083E0FAEDD2E7CD33EC332488
:1004ED0082FBE4C3CF33CFCE33CECD33CD33DBF36D
:1004FD007B0775F00A846004F0A31B0AE5F0F0A3F6
:10050D008FF0740AA4FFACF08EF0740AA42CFEAC2C
:10051D00F050010C8DF0740AA42CFDE435F0F0A31D
:05052D00DBDE74072273
:100532003F8000004120000042C80000447A0000D1
:10054200461C400047C35000497424004B18968053
:100552004CBEBC205A0E1BCA6753C21C749DC5AE4A
:10056200FB60065407601C2323120590EB5438608D
:100572000912057C12058B12011EECF8EDF9EEFA58
:10058200EFCB22EB12058B80F1543803241C90052B
:1005920032FE93FC0EEE93FD0EEE930ECE93FF22EF
:10154A00021114E493A3F8E493A34003F68001F292
:10155A0008DFF48029E493A3F85407240CC8C333A2
:10156A00C4540F4420C8834004F456800146F6DF71
:10157A00E4800B010204081020408090178AE47E60
:10158A00019360BCA3FF543F30E509541FFEE49366
:10159A00A360010ECF54C025E060A840B8E493A32D
:1015AA00FAE493A3F8E493A3C8C582C8CAC583CA58
:1015BA00F0A3C8C582C8CAC583CADFE9DEE780BE10
:0117E7000001
:1005A200E709F608DFFA8046E709F208DFFA803E3B
:1005B20088828C83E709F0A3DFFA8032E309F60828
:1005C200DFFA8078E309F208DFFA807088828C8390
:1005D200E309F0A3DFFA806489828A83E0A3F60844
:1005E200DFFA805889828A83E0A3F208DFFA804C1E
:1005F20080D280FA80C680D4806980F280338010F5
:1006020080A680EA809A80A880DA80E280CA80335D
:1006120089828A83ECFAE493A3C8C582C8CCC583D5
:10062200CCF0A3C8C582C8CCC583CCDFE9DEE780A5
:100632000D89828A83E493A3F608DFF9ECFAA9F024
:10064200EDFB2289828A83ECFAE0A3C8C582C8CC7A
:10065200C583CCF0A3C8C582C8CCC583CCDFEADE93
:10066200E880DB89828A83E493A3F208DFF980CCF5
:1006720088F0EF60010E4E60C388F0ED2402B404EE
:100682000050B9F582EB2402B4040050AF23234595
:0606920082239005F273C3
:10069800BB010689828A83E0225002E722BBFE0260
:0906A800E32289828A83E4932293
:1006B100BB010CE58229F582E5833AF583E02250FE
:1006C10006E92582F8E622BBFE06E92582F8E22248
:0D06D100E58229F582E5833AF583E4932262
:1006DE00BB010689828A83F0225002F722BBFE01FB
:0206EE00F322F5
:1006F000EF8DF0A4A8F0CF8CF0A428CE8DF0A42E1E
:02070000FE22D7
:10070200BC000BBE0029EF8DF084FFADF022E4CCDB
:10071200F875F008EF2FFFEE33FEEC33FCEE9DECA4
:10072200984005FCEE9DFE0FD5F0E9E4CEFD22EDEA
:10073200F8F5F0EE8420D21CFEADF075F008EF2F34
:10074200FFED33FD4007985006D5F0F222C398FD25
:050752000FD5F0EA22C2
:10075700C2D5EC30E709B2D5E4C39DFDE49CFCEEBD
:1007670030E715B2D5E4C39FFFE49EFE120702C32C
:10077700E49DFDE49CFC800312070230D507C3E427
:060787009FFFE49EFE222C
:10078D00C5F0F8A3E028F0C5F0F8E58215827002F7
:06079D001583E038F02294
:1007A300E88FF0A4CC8BF0A42CFCE98EF0A42CFCF5
:1007B3008AF0EDA42CFCEA8EF0A4CDA8F08BF0A473
:1007C3002DCC3825F0FDE98FF0A42CCD35F0FCEBD2
:1007D3008EF0A4FEA9F0EB8FF0A4CFC5F02ECD3997
:0F07E300FEE43CFCEAA42DCE35F0FDE43CFC2204
:0E07F200C3E49FFFE49EFEE49DFDE49CFC2218
:10080000EB9FF5F0EA9E42F0E99D42F0EC6480C86F
:0608100064809845F0220F
:10081600EB9FF5F0EA9E42F0E99D42F0E89C45F038
:0108260022AF
:0C082700ECF0A3EDF0A3EEF0A3EFF02244
:10083300A8828583F0D083D08212084A12084A1214
:10084300084A12084AE473E493A3C583C5F0C58339
:10085300C8C582C8F0A3C583C5F0C583C8C582C80F
:010863002272
:10086400F8E0FBA3A3E0F925F0F0E582158270021D
:070874001583E0FA38F022C1
:09087B00EBF0A3EAF0A3E9F0227E
:10088400D083D082F8E4937012740193700DA3A303
:1008940093F8740193F5828883E473740293686017
:0608A400EFA3A3A380DF17
:00000001FF
